{
  "contractName": "ProductLogic",
  "abi": [
    {
      "inputs": [],
      "stateMutability": "nonpayable",
      "type": "constructor"
    },
    {
      "anonymous": false,
      "inputs": [
        {
          "indexed": false,
          "internalType": "bool",
          "name": "stopped",
          "type": "bool"
        }
      ],
      "name": "EmergencyStopSet",
      "type": "event"
    },
    {
      "anonymous": false,
      "inputs": [
        {
          "indexed": false,
          "internalType": "uint256",
          "name": "productId",
          "type": "uint256"
        },
        {
          "indexed": false,
          "internalType": "string",
          "name": "productName",
          "type": "string"
        },
        {
          "indexed": true,
          "internalType": "address",
          "name": "manufacturer",
          "type": "address"
        }
      ],
      "name": "ProductRegistered",
      "type": "event"
    },
    {
      "inputs": [],
      "name": "owner",
      "outputs": [
        {
          "internalType": "address",
          "name": "",
          "type": "address"
        }
      ],
      "stateMutability": "view",
      "type": "function",
      "constant": true
    },
    {
      "inputs": [],
      "name": "productCount",
      "outputs": [
        {
          "internalType": "uint256",
          "name": "",
          "type": "uint256"
        }
      ],
      "stateMutability": "view",
      "type": "function",
      "constant": true
    },
    {
      "inputs": [
        {
          "internalType": "uint256",
          "name": "",
          "type": "uint256"
        }
      ],
      "name": "products",
      "outputs": [
        {
          "internalType": "uint256",
          "name": "productId",
          "type": "uint256"
        },
        {
          "internalType": "string",
          "name": "productName",
          "type": "string"
        },
        {
          "internalType": "address",
          "name": "manufacturer",
          "type": "address"
        },
        {
          "internalType": "bool",
          "name": "isRegistered",
          "type": "bool"
        }
      ],
      "stateMutability": "view",
      "type": "function",
      "constant": true
    },
    {
      "inputs": [],
      "name": "stopped",
      "outputs": [
        {
          "internalType": "bool",
          "name": "",
          "type": "bool"
        }
      ],
      "stateMutability": "view",
      "type": "function",
      "constant": true
    },
    {
      "inputs": [],
      "name": "toggleContractStopped",
      "outputs": [],
      "stateMutability": "nonpayable",
      "type": "function"
    },
    {
      "inputs": [
        {
          "internalType": "uint256",
          "name": "_productId",
          "type": "uint256"
        },
        {
          "internalType": "string",
          "name": "_productName",
          "type": "string"
        }
      ],
      "name": "registerProduct",
      "outputs": [],
      "stateMutability": "nonpayable",
      "type": "function"
    },
    {
      "inputs": [
        {
          "internalType": "uint256",
          "name": "_productId",
          "type": "uint256"
        }
      ],
      "name": "getProduct",
      "outputs": [
        {
          "internalType": "uint256",
          "name": "productId",
          "type": "uint256"
        },
        {
          "internalType": "string",
          "name": "productName",
          "type": "string"
        },
        {
          "internalType": "address",
          "name": "manufacturer",
          "type": "address"
        },
        {
          "internalType": "bool",
          "name": "isRegistered",
          "type": "bool"
        }
      ],
      "stateMutability": "view",
      "type": "function",
      "constant": true
    },
    {
      "inputs": [],
      "name": "getRegisterProductHash",
      "outputs": [
        {
          "internalType": "bytes4",
          "name": "",
          "type": "bytes4"
        }
      ],
      "stateMutability": "pure",
      "type": "function",
      "constant": true
    },
    {
      "inputs": [],
      "name": "getGetProductHash",
      "outputs": [
        {
          "internalType": "bytes4",
          "name": "",
          "type": "bytes4"
        }
      ],
      "stateMutability": "pure",
      "type": "function",
      "constant": true
    }
  ],
  "bytecode": "0x608060405234801561001057600080fd5b50336000806101000a81548173ffffffffffffffffffffffffffffffffffffffff021916908373ffffffffffffffffffffffffffffffffffffffff16021790555060008060146101000a81548160ff0219169083151502179055506111678061007a6000396000f3fe608060405234801561001057600080fd5b50600436106100935760003560e01c8063b9db15b411610066578063b9db15b414610125578063bc05d08714610158578063e0f6ef8714610174578063e83c78d414610192578063f0bac3101461019c57610093565b80634c2f65a91461009857806375f12b21146100b65780637acc0b20146100d45780638da5cb5b14610107575b600080fd5b6100a06101ba565b6040516100ad919061081b565b60405180910390f35b6100be6101e2565b6040516100cb9190610851565b60405180910390f35b6100ee60048036038101906100e991906108b6565b6101f5565b6040516100fe94939291906109c3565b60405180910390f35b61010f6102da565b60405161011c9190610a0f565b60405180910390f35b61013f600480360381019061013a91906108b6565b6102fe565b60405161014f94939291906109c3565b60405180910390f35b610172600480360381019061016d9190610b5f565b6104bb565b005b61017c6106b2565b6040516101899190610bbb565b60405180910390f35b61019a6106b8565b005b6101a46107b8565b6040516101b1919061081b565b60405180910390f35b60007ff14a3e247bf17f35dbfbcc8b800b52b36599b6ec914aa320d413e007e47488ac905090565b600060149054906101000a900460ff1681565b600160205280600052604060002060009150905080600001549080600101805461021e90610c05565b80601f016020809104026020016040519081016040528092919081815260200182805461024a90610c05565b80156102975780601f1061026c57610100808354040283529160200191610297565b820191906000526020600020905b81548152906001019060200180831161027a57829003601f168201915b5050505050908060020160009054906101000a900473ffffffffffffffffffffffffffffffffffffffff16908060020160149054906101000a900460ff16905084565b60008054906101000a900473ffffffffffffffffffffffffffffffffffffffff1681565b600060606000806001600086815260200190815260200160002060020160149054906101000a900460ff16610368576040517f08c379a000000000000000000000000000000000000000000000000000000000815260040161035f90610c82565b60405180910390fd5b600060016000878152602001908152602001600020604051806080016040529081600082015481526020016001820180546103a290610c05565b80601f01602080910402602001604051908101604052809291908181526020018280546103ce90610c05565b801561041b5780601f106103f05761010080835404028352916020019161041b565b820191906000526020600020905b8154815290600101906020018083116103fe57829003601f168201915b505050505081526020016002820160009054906101000a900473ffffffffffffffffffffffffffffffffffffffff1673ffffffffffffffffffffffffffffffffffffffff1673ffffffffffffffffffffffffffffffffffffffff1681526020016002820160149054906101000a900460ff161515151581525050905080600001518160200151826040015183606001519450945094509450509193509193565b600060149054906101000a900460ff161561050b576040517f08c379a000000000000000000000000000000000000000000000000000000000815260040161050290610cee565b60405180910390fd5b6001600083815260200190815260200160002060020160149054906101000a900460ff161561056f576040517f08c379a000000000000000000000000000000000000000000000000000000000815260040161056690610d5a565b60405180910390fd5b60405180608001604052808381526020018281526020013373ffffffffffffffffffffffffffffffffffffffff16815260200160011515815250600160008481526020019081526020016000206000820151816000015560208201518160010190816105db9190610f26565b5060408201518160020160006101000a81548173ffffffffffffffffffffffffffffffffffffffff021916908373ffffffffffffffffffffffffffffffffffffffff16021790555060608201518160020160146101000a81548160ff0219169083151502179055509050506002600081548092919061065990611027565b91905055503373ffffffffffffffffffffffffffffffffffffffff167fd810998a0248808a33b20218e71759cb2ec1a182b398350ad606d742587c012c83836040516106a692919061106f565b60405180910390a25050565b60025481565b60008054906101000a900473ffffffffffffffffffffffffffffffffffffffff1673ffffffffffffffffffffffffffffffffffffffff163373ffffffffffffffffffffffffffffffffffffffff1614610746576040517f08c379a000000000000000000000000000000000000000000000000000000000815260040161073d90611111565b60405180910390fd5b600060149054906101000a900460ff1615600060146101000a81548160ff0219169083151502179055507f63ae042a5baeac6c85717731198bb29619465479eb6802bb62e652b69becbdb6600060149054906101000a900460ff166040516107ae9190610851565b60405180910390a1565b60007fbc05d087f7c46b91d2576586c764545ce04866b657fd88a460391fe03ef53789905090565b60007fffffffff0000000000000000000000000000000000000000000000000000000082169050919050565b610815816107e0565b82525050565b6000602082019050610830600083018461080c565b92915050565b60008115159050919050565b61084b81610836565b82525050565b60006020820190506108666000830184610842565b92915050565b6000604051905090565b600080fd5b600080fd5b6000819050919050565b61089381610880565b811461089e57600080fd5b50565b6000813590506108b08161088a565b92915050565b6000602082840312156108cc576108cb610876565b5b60006108da848285016108a1565b91505092915050565b6108ec81610880565b82525050565b600081519050919050565b600082825260208201905092915050565b60005b8381101561092c578082015181840152602081019050610911565b60008484015250505050565b6000601f19601f8301169050919050565b6000610954826108f2565b61095e81856108fd565b935061096e81856020860161090e565b61097781610938565b840191505092915050565b600073ffffffffffffffffffffffffffffffffffffffff82169050919050565b60006109ad82610982565b9050919050565b6109bd816109a2565b82525050565b60006080820190506109d860008301876108e3565b81810360208301526109ea8186610949565b90506109f960408301856109b4565b610a066060830184610842565b95945050505050565b6000602082019050610a2460008301846109b4565b92915050565b600080fd5b600080fd5b7f4e487b7100000000000000000000000000000000000000000000000000000000600052604160045260246000fd5b610a6c82610938565b810181811067ffffffffffffffff82111715610a8b57610a8a610a34565b5b80604052505050565b6000610a9e61086c565b9050610aaa8282610a63565b919050565b600067ffffffffffffffff821115610aca57610ac9610a34565b5b610ad382610938565b9050602081019050919050565b82818337600083830152505050565b6000610b02610afd84610aaf565b610a94565b905082815260208101848484011115610b1e57610b1d610a2f565b5b610b29848285610ae0565b509392505050565b600082601f830112610b4657610b45610a2a565b5b8135610b56848260208601610aef565b91505092915050565b60008060408385031215610b7657610b75610876565b5b6000610b84858286016108a1565b925050602083013567ffffffffffffffff811115610ba557610ba461087b565b5b610bb185828601610b31565b9150509250929050565b6000602082019050610bd060008301846108e3565b92915050565b7f4e487b7100000000000000000000000000000000000000000000000000000000600052602260045260246000fd5b60006002820490506001821680610c1d57607f821691505b602082108103610c3057610c2f610bd6565b5b50919050565b7f50726f64756374206e6f74207265676973746572656400000000000000000000600082015250565b6000610c6c6016836108fd565b9150610c7782610c36565b602082019050919050565b60006020820190508181036000830152610c9b81610c5f565b9050919050565b7f436f6e74726163742069732073746f7070656400000000000000000000000000600082015250565b6000610cd86013836108fd565b9150610ce382610ca2565b602082019050919050565b60006020820190508181036000830152610d0781610ccb565b9050919050565b7f50726f6475637420616c72656164792072656769737465726564000000000000600082015250565b6000610d44601a836108fd565b9150610d4f82610d0e565b602082019050919050565b60006020820190508181036000830152610d7381610d37565b9050919050565b60008190508160005260206000209050919050565b60006020601f8301049050919050565b600082821b905092915050565b600060088302610ddc7fffffffffffffffffffffffffffffffffffffffffffffffffffffffffffffffff82610d9f565b610de68683610d9f565b95508019841693508086168417925050509392505050565b6000819050919050565b6000610e23610e1e610e1984610880565b610dfe565b610880565b9050919050565b6000819050919050565b610e3d83610e08565b610e51610e4982610e2a565b848454610dac565b825550505050565b600090565b610e66610e59565b610e71818484610e34565b505050565b5b81811015610e9557610e8a600082610e5e565b600181019050610e77565b5050565b601f821115610eda57610eab81610d7a565b610eb484610d8f565b81016020851015610ec3578190505b610ed7610ecf85610d8f565b830182610e76565b50505b505050565b600082821c905092915050565b6000610efd60001984600802610edf565b1980831691505092915050565b6000610f168383610eec565b9150826002028217905092915050565b610f2f826108f2565b67ffffffffffffffff811115610f4857610f47610a34565b5b610f528254610c05565b610f5d828285610e99565b600060209050601f831160018114610f905760008415610f7e578287015190505b610f888582610f0a565b865550610ff0565b601f198416610f9e86610d7a565b60005b82811015610fc657848901518255600182019150602085019450602081019050610fa1565b86831015610fe35784890151610fdf601f891682610eec565b8355505b6001600288020188555050505b505050505050565b7f4e487b7100000000000000000000000000000000000000000000000000000000600052601160045260246000fd5b600061103282610880565b91507fffffffffffffffffffffffffffffffffffffffffffffffffffffffffffffffff820361106457611063610ff8565b5b600182019050919050565b600060408201905061108460008301856108e3565b81810360208301526110968184610949565b90509392505050565b7f4f6e6c7920636f6e7472616374206f776e65722063616e20706572666f726d2060008201527f7468697320616374696f6e000000000000000000000000000000000000000000602082015250565b60006110fb602b836108fd565b91506111068261109f565b604082019050919050565b6000602082019050818103600083015261112a816110ee565b905091905056fea264697066735822122042238d7db2040dcc4da975ab65cc3721addd2ed097ab361ed82db32fe902fab064736f6c63430008130033",
  "immutableReferences": {},
  "source": "    // SPDX-License-Identifier: MIT\n    pragma solidity ^0.8.0;\n\n    //Emergency Stop / Circuit Breaker dp\n\n    contract ProductLogic {\n        address public owner;\n        bool public stopped;\n\n        struct Product {\n            uint productId;\n            string productName;\n            address manufacturer;\n            bool isRegistered;\n        }\n\n        mapping(uint => Product) public products;\n        uint public productCount;\n\n        event ProductRegistered(uint productId, string productName, address indexed manufacturer);\n        event EmergencyStopSet(bool stopped);\n\n        modifier onlyOwner {\n            require(msg.sender == owner, \"Only contract owner can perform this action\");\n            _;\n        }\n\n        modifier whenNotStopped {\n            require(!stopped, \"Contract is stopped\");\n            _;\n        }\n\n        constructor() {\n            owner = msg.sender;\n            stopped = false;\n        }\n\n        function toggleContractStopped() external onlyOwner {\n            stopped = !stopped;\n            emit EmergencyStopSet(stopped);\n        }\n\n        function registerProduct(uint _productId, string memory _productName) external whenNotStopped {\n            require(!products[_productId].isRegistered, \"Product already registered\");\n            \n            products[_productId] = Product(_productId, _productName, msg.sender, true);\n            productCount++;\n\n            emit ProductRegistered(_productId, _productName, msg.sender);\n        }\n\n        function getProduct(uint _productId) external view returns (\n            uint productId,\n            string memory productName,\n            address manufacturer,\n            bool isRegistered\n        ) {\n            require(products[_productId].isRegistered, \"Product not registered\");\n\n            Product memory product = products[_productId];\n            return (\n                product.productId,\n                product.productName,\n                product.manufacturer,\n                product.isRegistered\n            );\n        }\n\n        function getRegisterProductHash() external pure returns (bytes4) {\n            return bytes4(keccak256(\"registerProduct(uint256,string)\"));\n        }\n\n        function getGetProductHash() external pure returns (bytes4) {\n            return bytes4(keccak256(\"getProduct(uint)\"));\n        }\n\n\n    }",
  "sourcePath": "/home/rosario/Scrivania/ValidiVault/truffle_deploy/contracts/ProductLogic.sol",
  "compiler": {
    "name": "solc",
    "version": "0.8.19+commit.7dd6d404.Emscripten.clang"
  },
  "schemaVersion": "3.4.16",
  "updatedAt": "2024-01-02T18:55:09.850Z",
  "networkType": "ethereum",
  "devdoc": {
    "kind": "dev",
    "methods": {},
    "version": 1
  },
  "userdoc": {
    "kind": "user",
    "methods": {},
    "version": 1
  }
}