{
  "contractName": "ProductProxy",
  "abi": [
    {
      "inputs": [
        {
          "internalType": "address",
          "name": "_logicContract",
          "type": "address"
        }
      ],
      "stateMutability": "nonpayable",
      "type": "constructor"
    },
    {
      "stateMutability": "payable",
      "type": "fallback"
    },
    {
      "inputs": [],
      "name": "logicContract",
      "outputs": [
        {
          "internalType": "address",
          "name": "",
          "type": "address"
        }
      ],
      "stateMutability": "view",
      "type": "function"
    },
    {
      "stateMutability": "payable",
      "type": "receive"
    },
    {
      "inputs": [
        {
          "internalType": "address",
          "name": "newLogicContract",
          "type": "address"
        }
      ],
      "name": "changeLogicContract",
      "outputs": [],
      "stateMutability": "nonpayable",
      "type": "function"
    }
  ],
  "bytecode": "0x608060405234801561001057600080fd5b50604051610343380380610343833981810160405281019061003291906100db565b806000806101000a81548173ffffffffffffffffffffffffffffffffffffffff021916908373ffffffffffffffffffffffffffffffffffffffff16021790555050610108565b600080fd5b600073ffffffffffffffffffffffffffffffffffffffff82169050919050565b60006100a88261007d565b9050919050565b6100b88161009d565b81146100c357600080fd5b50565b6000815190506100d5816100af565b92915050565b6000602082840312156100f1576100f0610078565b5b60006100ff848285016100c6565b91505092915050565b61022c806101176000396000f3fe60806040526004361061002d5760003560e01c80633161755414610081578063cc0e97c9146100aa57610034565b3661003457005b60008060009054906101000a900473ffffffffffffffffffffffffffffffffffffffff16905060405136600082376000803683855af43d806000843e816000811461007d578184f35b8184fd5b34801561008d57600080fd5b506100a860048036038101906100a3919061019f565b6100d5565b005b3480156100b657600080fd5b506100bf610118565b6040516100cc91906101db565b60405180910390f35b806000806101000a81548173ffffffffffffffffffffffffffffffffffffffff021916908373ffffffffffffffffffffffffffffffffffffffff16021790555050565b60008054906101000a900473ffffffffffffffffffffffffffffffffffffffff1681565b600080fd5b600073ffffffffffffffffffffffffffffffffffffffff82169050919050565b600061016c82610141565b9050919050565b61017c81610161565b811461018757600080fd5b50565b60008135905061019981610173565b92915050565b6000602082840312156101b5576101b461013c565b5b60006101c38482850161018a565b91505092915050565b6101d581610161565b82525050565b60006020820190506101f060008301846101cc565b9291505056fea2646970667358221220446d2b0b1d4e24dd57f5f2c81f6a4281d39d97900de27d40b12c36ed4f91c0d664736f6c63430008130033",
  "immutableReferences": {},
  "source": "// SPDX-License-Identifier: MIT\npragma solidity ^0.8.0;\n\n//proxy dp \n\ncontract ProductProxy {\n    address public logicContract;\n\n    constructor(address _logicContract) {\n        logicContract = _logicContract;\n    }\n\n    fallback() external payable {\n        address target = logicContract;\n        assembly {\n            let ptr := mload(0x40)\n            calldatacopy(ptr, 0, calldatasize())\n            let result := delegatecall(gas(), target, ptr, calldatasize(), 0, 0)\n            let size := returndatasize()\n            returndatacopy(ptr, 0, size)\n\n            switch result\n            case 0 {\n                revert(ptr, size)\n            }\n            default {\n                return(ptr, size)\n            }\n        }\n    }\n\n    receive() external payable {\n        // Receive function to handle incoming Ether (optional logic)\n        // This function will be triggered when Ether is sent directly to the contract\n    }\n\n    function changeLogicContract(address newLogicContract) external {\n        logicContract = newLogicContract;\n    }\n}",
  "sourcePath": "/home/rosario/Scrivania/ValidiVault/truffle_deploy/contracts/ProductProxy.sol",
  "compiler": {
    "name": "solc",
    "version": "0.8.19+commit.7dd6d404.Emscripten.clang"
  },
  "schemaVersion": "3.4.16",
  "updatedAt": "2024-01-02T18:55:05.252Z",
  "devdoc": {
    "kind": "dev",
    "methods": {},
    "version": 1
  },
  "userdoc": {
    "kind": "user",
    "methods": {},
    "version": 1
  }
}